S0100000696E69745F746573742E73333711
S3150800000000100020350400087B2500087B25000821
S315080000107B2500087B2500087B2500087B25000832
S315080000207B2500087B2500087B2500087B25000822
S315080000307B2500087B2500087B2500087B25000812
S315080000407B2500087B2500087B2500087B25000802
S315080000507B2500087B2500087B2500087B250008F2
S315080000607B2500087B2500087B2500087B250008E2
S315080000707B2500087B2500087B2500087B250008D2
S315080000807B2500087B2500087B2500087B250008C2
S315080000907B2500087B2500087B2500087B250008B2
S315080000A07B2500087B2500087B2500087B250008A2
S315080000B07B2500087B2500087B2500087B25000892
S315080000C07B2500087B2500087B2500087B25000882
S315080000D07B2500087B2500087B2500087B25000872
S315080000E07B2500087B2500087B2500087B25000862
S315080000F07B2500087B2500087B2500087B25000852
S315080001007B2500087B2500087B2500087B25000841
S315080001107B2500087B2500087B2500087B25000831
S315080001207B2500087B2500087B2500087B25000821
S315080001307B2500087B2500087B2500087B25000811
S315080001407B2500087B2500087B2500087B25000801
S315080001507B2500087B250008D52600087B25000896
S315080001607B2500087B2500087B2500087B250008E1
S315080001700348044B834202D0034B03B11847704728
S31508000180241000202410002000000000064B074918
S31508000190C91A891048BF0131491003D0044B0BB165
S315080001A001481847704700BF24100020241000207B
S315080001B00000000010B5064C237843B9FFF7D8FFB6
S315080001C0044B13B10448AFF300800123237010BD1C
S315080001D072100020000000008029000808B5054BB1
S315080001E01BB105490548AFF30080BDE80840FFF795
S315080001F0CDBF00BF000000002410002080290008A1
S31508000200A3F5803A704700BF174B002B08BF134B66
S315080002109D46FFF7F5FF00218B460F461348144A03
S31508000220121A02F08CFA0E4B002B00D098470D4B91
S31508000230002B00D098470020002104000D000D482F
S31508000240002802D00C48AFF3008002F045F92000E0
S31508000250290002F069F902F02DF900BF0000080034
S3150800026000000000000000000010002024100020FC
S315080002707810002000000000000000000122014B59
S315080002801A7070477310002007B5002301224FF437
S31508000290FA71CDE900320348034A01F007FE03B0BC
S315080002A05DF804FB3C1000207D02000810B5044CE4
S315080002B0237823B1034802F079F90023237010BD8F
S315080002C073100020A027000810B5274C00F08CFFFB
S315080002D002F0B4F9236F23F0070343F003032367FF
S315080002E002F0B7F9214B00209B6ADB015EBF4FF491
S315080002F080321F4B9A62D4F8203123F0070343F06B
S315080003000203C4F82031D4F8283123F0070343F058
S315080003100203C4F82831D4F8403123F0030343F02C
S315080003200203C4F84031D4F8603123F0030343F0E4
S315080003300203C4F86031D4F8403223F0030343F0D3
S315080003400203C4F84032D4F8003223F0070343F01E
S315080003500203C4F80032D4F8083223F0070343F046
S315080003600203C4F8083210BD008000500040005A4D
S315080003700060005A4FF480301E491F4A4B6E10B574
S315080003805066486E4FF000414AF6CD3451661B4917
S3150800039003F480334A6C0C6402F001024C6BE407E8
S315080003A0FCD4012416494C60A1F500510C6BE407F6
S315080003B0FCD50AB1134A0A640028A2BF4FF00041CF
S315080003C0114A51661BB94FF480320F4B5A6601F039
S315080003D011FC02F0CEF801F099FB01F0F5FB01F0F3
S315080003E0BBFBFFF771FF01F0A5FBBDE8104002F06B
S315080003F0B7B800BF00800050009000500040095078
S31508000400006009503254FFFF00A00050014802F076
S31508000410CAB800BFA02700080348044A0449121AAC
S31508000420921002F0ABB800BFB8290008B829000836
S315080004307810002008B500F02FF8FFF7EDFF124BF3
S3150800044012498B4212D30020114B12498B4218D302
S31508000450FFF7DAFE186850F82240586840F822403C
S31508000460013298688242F5D30C33EAE70022F8E7AE
S315080004701C6844F8220001325C68A242F8D30833AB
S31508000480E4E70022F8E700BF882900089429000855
S3150800049094290008942900084FF480414FF0FF3052
S315080004A0114B124A10B59A60D3F8882042F47002AC
S315080004B0C3F888200E4A91660E4901F50052106667
S315080004C00D4850660220C3F8D000BFF34F8FBFF324
S315080004D06F8F01244FF440330848C0F88041D36039
S315080004E004600B6110BD00BF00ED00E000000008CD
S315080004F000900050008000447FFF7F0100E100E08B
S31508000500014B1868704700BF04100020084B1B6F8A
S3150800051003F00703022B04D0032B05D0012B05D0CB
S31508000520FEE7044B18687047034BFBE70348704720
S3150800053000800050041000200C100020002D31010E
S3150800054008B5FFF7E3FF054B1B6FC3F3033301330E
S31508000550B0FBF3F0024B186008BD00BF00800050E6
S31508000560001000200048704700B4C404014B186806
S31508000570704700BF0C100020054B1860054B1B6F19
S3150800058003F00703032B01D1FFF7DABF704700BF5B
S315080005900C1000200080005000487047002D3101E3
S315080005A04FF0B4439868C0F304400C280AD8DFE833
S315080005B000F00B0909090909072119091B1D1F0064
S315080005C00F487047002070479B6803F04073B3F1EB
S315080005D0807F11D0B3F1007F10D00A4A002B08BFE4
S315080005E010467047084870470848704708487047DB
S315080005F008487047084870470848704708487047D1
S31508000600405DC60000093D00C0EA210180BA8C01A0
S315080006100048E801005A62020024F40080841E00A3
S3150800062040420F00014B1868704700BF08100020B1
S31508000630032838B504460D4605D8094B33F810305B
S31508000640CB40DB0704D440F2FE31064801F0A9FF8F
S31508000650302301225C43044BAA401A5138BD00BF1F
S315080006601C280008B827000840E00350032838B5BE
S3150800067004460D4605D8094B33F81030CB40DB0746
S3150800068004D440F22D41064801F08BFF30230122A5
S315080006905C43044BAA401A5138BD00BF1C28000809
S315080006A0B827000840D0035038B504784578032C9D
S315080006B005D8094B33F81430EB40DB0704D44FF464
S315080006C08961064801F06DFF302301225C43044B23
S315080006D0AA401A5138BD00BF1C280008B8270008D0
S315080006E040F0035070B505780446032D467805D8C2
S315080006F00C4B33F81530F340DB0704D44FF4836111
S31508000700094801F04EFF1022302313FB0523074A40
S315080007109B58F34003F00100A3780BB980F0010061
S3150800072070BD00BF1C280008B827000830C0035059
S31508000730044BD3F88420D206FBD4D3F88400C0F344
S31508000740811070470040005038B51A4B0546D3F85B
S3150800075020010C4600F00700062821D8DFE800F043
S3150800076028040C1410181C00FFF7CAFE052305B14F
S31508000770286004B1236038BDFFF7F8FE0323F6E7C7
S31508000780FFF70EFF0723F2E7FFF706FF0223EEE760
S31508000790FFF7B6FE0623EAE7FFF7E8FE0423E6E7D7
S315080007A0054841F25C2101F0FCFE00231846DEE70D
S315080007B00123DCE7008000502428000838B5194BCF
S315080007C00546D3F828310C4603F00703013B052BF1
S315080007D020D8DFE803F003131B0F0B17FFF790FE73
S315080007E0052305B1286004B1236038BDFFF788FEEC
S315080007F00623F6E7FFF7D4FE0723F2E7FFF7B6FE70
S315080008000323EEE7FFF7B2FE0423EAE7FFF7C4FE89
S315080008100223E6E7044841F2640101F0C2FE002320
S315080008201846DEE70080005024280008F7B50027A0
S31508000830144B0197D3F88041064604F00304022CB2
S315080008400D4614D0032C0DD0012C14D1394601A81D
S31508000850FFF77AFF0F240EB1019B336005B12C60B8
S3150800086003B0F0BDFFF79CFE07240190F3E7FFF7FE
S3150800087093FE0190EFE741F2B131034801F091FE92
S315080008803C46E8E7008000502428000838B50F4B9E
S315080008900546D3F890320C4603F00303012B09D022
S315080008A0022B0BD1FFF77CFE072305B1286004B1A4
S315080008B0236038BDFFF770FE0223F6E7044841F2CD
S315080008C0501101F06EFE00231846EEE70080005036
S315080008D024280008002337B50193194B0546D3F899
S315080008E020320C4603F00703042B1FD8DFE803F079
S315080008F025030F141900002101A8FFF75FFF112334
S315080009000DB1019A2A6004B1236003B030BDFFF728
S3150800091047FE07230190F3E701F03DFE0A23019005
S31508000920EEE7FFF77FFE09230190E9E741F223018D
S31508000930044801F036FE0023E2E70123E0E700BFA2
S31508000940008000502428000838B5104B0546D3F817
S3150800095040310C4603F00303022B0BD0032B0DD0BA
S31508000960012B0FD101F017FE0A2305B1286004B147
S31508000970236038BDFFF756FE0923F6E701F00EFEA1
S315080009800B23F2E701230020EFE700BF00800050A9
S31508000990002337B50193184B0546D3F860320C4649
S315080009A003F00703013B032B1FD8DFE803F0020E11
S315080009B01914002101A8FFF7C7FE0F230DB1019AEC
S315080009C02A6004B1236003B030BD002101A8FFF7F7
S315080009D0BBFF1023F2E7FFF7E3FD07230190EDE7DE
S315080009E0FFF7DAFD02230190E8E741F2C801034860
S315080009F001F0D7FD0023E1E7008000502428000815
S31508000A0073B500240F4B0194D3F87032064603F0F1
S31508000A100303012B0D4607D0022B11D041F22611F4
S31508000A20094801F0BEFD04E0214601A8FFF78CFF46
S31508000A3010240EB1019B336005B12C6002B070BD65
S31508000A401424F6E7008000502428000838B5164B11
S31508000A500546D3F800020C4600F00700042819D80A
S31508000A60DFE800F020030B0F130001F094FD0A23C2
S31508000A7005B1286004B1236038BDFFF7D3FD09230B
S31508000A80F6E701F08BFD0B23F2E7FFF759FD0E237E
S31508000A90800AEDE7054841F26F4101F082FD002327
S31508000AA01846E5E70123E3E70080005024280008FC
S31508000AB038B5164B0546D3F808020C4600F0070071
S31508000AC0042819D8DFE800F020030B0F130001F003
S31508000AD062FD0A2305B1286004B1236038BDFFF71B
S31508000AE0A1FD0923F6E701F059FD0B23F2E7FFF70D
S31508000AF027FD0E23800AEDE7054841F2A74101F0DC
S31508000B0050FD00231846E5E70123E3E7008000507F
S31508000B102428000838B5104B0546D3F840320C4651
S31508000B2003F00303022B0BD0032B0DD0012B0FD19F
S31508000B3001F031FD0A2305B1286004B1236038BDF0
S31508000B40FFF770FD0923F6E701F028FD0B23F2E70E
S31508000B5001230020EFE700BF0080005038B5124B94
S31508000B600546D3F850320C4603F00303022B0FD088
S31508000B70032B05D0012B0FD101F00DFD0A2302E04E
S31508000B8001F00CFD0B2305B1286004B1236038BDC4
S31508000B90FFF748FD0923F6E7044841F2940101F0FE
S31508000BA000FD00231846EEE70080005024280008C0
S31508000BB038B5104B0546D3F860310C4603F00303ED
S31508000BC0022B0BD0032B0DD0012B0FD101F0E3FC28
S31508000BD00A2305B1286004B1236038BDFFF722FD5A
S31508000BE00923F6E701F0DAFC0B23F2E701230020DC
S31508000BF0EFE700BF00800050B0F5207F10B534D075
S31508000C0009D8B0F5007F2AD003D898B1B0F5C07FCF
S31508000C1010D0002421E0B0F5607FFAD1154BD3F847
S31508000C208030C3F301149B0617D5032C15D040F268
S31508000C3095210FE00F4B1C6F230B13F00E0FC4F317
S31508000C4003340AD0072C08D00F2C06D0032C04D066
S31508000C5040F28521084801F0A4FC601C10BD054B34
S31508000C60D3F89040C4F30464F7E7024B1C6FC4F34F
S31508000C708024F2E700800050242800084FF48032D0
S31508000C8038B5104B04469A6600200D46FFF7B4FFA8
S31508000C9041F671320C4B6043DC69DA635A6804F436
S31508000CA0803422F440125DB90849884294BF002076
S31508000CB00120000502435A600CB10022DA6338BDF0
S31508000CC00349F2E70090005000000350005A620200
S31508000CD0002D310138B5430904460D460ED140F2C0
S31508000CE02F310D4801F05DFC002304F01F0485B187
S31508000CF003F580530122A2401A6038BD012B04D0A7
S31508000D00022B04D040F23D31EBE7044BEDE7044BF0
S31508000D10EBE703F50053EDE724280008648000504C
S31508000D2068800050002130B5B0F5807F85B0044654
S31508000D30019100F0F58066D858285CD858285CD808
S31508000D40DFE810F071005B005B005B005B005B0096
S31508000D505B005B005B005B005B005B005B005B00AD
S31508000D605B005B005B005B005B005B005B005B009D
S31508000D705B005B005B005B005B005B005B005B008D
S31508000D805B005B007100CF005B00CF00E400E4006D
S31508000D90E400E400E400CF00E9007A00FF009A00CE
S31508000DA07A00CF00CF00CF005B005B005B005B00E2
S31508000DB05B005B005B00FF00CF00CF00CF00170190
S31508000DC00401CF005B005B005B005B005B005B001F
S31508000DD05B005B005B005B005B005B000901E400F5
S31508000DE0710071007100AD007A007A00B5000E013D
S31508000DF08F00C400C40080286DD040F294415F483B
S31508000E0001F0CFFB6AE0B0F5E06F00F09F8038D8BC
S31508000E10B0F5607F70D01AD8B0F5007F6CD005D8D1
S31508000E20B0F5C07FE9D1FFF78BFB56E0B0F5207F20
S31508000E3057D0B0F5407FE0D1FFF782FB04464FF468
S31508000E402070FFF7D9FEB4FBF0F4640852E0B0F561
S31508000E50B06F60D00AD8B0F5806F57D0B0F5A06FE4
S31508000E60CBD1002101A8FFF735FD37E0B0F5C06FFB
S31508000E7067D0B0F5D06FC0D1002101A8FFF7E6FD15
S31508000E802CE0B0F5286F6BD016D8B0F5186F62D085
S31508000E900AD8B0F5F06F6CD0B0F5106FADD100215F
S31508000EA001A8FFF705FE19E0B0F5206FA5D10021CE
S31508000EB001A8FFF76DFD11E0B0F5306F55D09CD352
S31508000EC0B0F5386F3DD0B0F5406F96D1002101A836
S31508000ED0FFF774FC02E0FFF719FB0190019805B0D3
S31508000EE030BDFFF72DFB04464FF42070FFF784FE54
S31508000EF0B4FBF0F40194F1E7FFF708FB054620463A
S31508000F00FFF77AFEB5FBF0F50195E7E7002101A8A2
S31508000F10FFF71AFCE2E7002101A8FFF787FCDDE7E7
S31508000F204FF0E02302911B695B0705D5FFF708FB25
S31508000F300290029B0193D1E703A902A8FFF704FDDB
S31508000F40F7E7002101A8FFF7FFFCC7E7002101A882
S31508000F50FFF7E0FDC2E7002101A8FFF7FFFDBDE7A7
S31508000F60002101A8FFF74CFDB8E701A8FFF78EFCA2
S31508000F70B4E7002101A8FFF71BFEAFE72428000805
S31508000F801FB503460020B3F5807F019000F0D78097
S31508000F9077D8582B68D8382B05D8243B092B49D93C
S31508000FA040F27951BFE0393B1F2BF9D801A252F81C
S31508000FB023F000BF61110008A10F0008A10F000867
S31508000FC0A10F00086B110008B1110008A10F000855
S31508000FD0A10F0008A10F0008A10F0008A10F000823
S31508000FE0A10F0008A10F0008A10F0008A10F000813
S31508000FF0A10F0008A10F0008A10F0008A10F000803
S31508001000BB110008A9100008A10F0008A10F0008CD
S31508001010A10F0008ED100008A10F0008A10F000895
S31508001020C5110008CF110008A71100080F11000804
S315080010300F110008092BB3D801A252F823F000BFFC
S31508001040A9100008A9100008A9100008A91000088E
S31508001050A9100008A10F00082F110008A10F000809
S3150800106061110008C7100008802B99D15C4B1B6FD3
S3150800107003F00703013B032B53D8DFE803F0504D79
S315080010808890B3F5086F75D022D8B3F5C06F67D0CE
S315080010900FD8B3F5A06F00F08680B3F5B06F46D0D1
S315080010A0B3F5806F7FF47CAF002001A9FFF74CFBF6
S315080010B041E0B3F5E06F7BD0B3F5F06F55D0B3F5EB
S315080010C0D06F7FF46DAF002001A9FFF7BFFC32E0B7
S315080010D0B3F5286F7BD00ED8B3F5186F6DD0B3F57E
S315080010E0206F6FD0B3F5106F7FF45AAF002001A9B7
S315080010F0FFF7DEFC1FE0B3F5306F6DD0FFF450AF9D
S31508001100B3F5386F2CD0B3F5406F7FF449AF0020A4
S3150800111001A9FFF753FB0EE0052301930BE0022319
S31508001120FBE740F2C6412F4801F03BFA03E00020F6
S3150800113001A9FFF77BFB019805B05DF804FB4FF0AA
S31508001140E02302901B695B0705D5FFF7F9F90C2325
S315080011500393039BE1E703A902A8FFF7F5FBF8E76A
S31508001160002001A9FFF7F0FBE5E7002001A9FFF73A
S315080011701FFDE0E71A4BD3F8003103F00303022BF7
S3150800118007D0032B09D0012B0BD1FFF7EFF9032367
S31508001190C3E7FFF747FA0923BFE701F0FAF908237F
S315080011A0BBE70123B9E7002001A9FFF793FBC2E7D4
S315080011B0002001A9FFF7AEFCBDE7002001A9FFF753
S315080011C0CDFCB8E7002001A9FFF7E2FBB3E7002052
S315080011D001A9FFF715FCAEE701A9FFF757FBAAE738
S315080011E000800050242800084FF48012034B5A66EA
S315080011F04FF48032024B9A62704700BF009000504D
S315080012000050005AF8B5036804460F2B04D940F677
S315080012106D31804801F0C5F963680F2B04D94FF486
S3150800122037617C4801F0BDF9A3680F2B04D940F655
S315080012307331784801F0B5F9237B0F2B04D940F6B2
S315080012407631744801F0ADF9637B0F2B04D940F66B
S315080012507931704801F0A5F9A37B3F2B04D940F6F4
S315080012607C316C4801F09DF9E37B3F2B04D940F6AD
S315080012707F31684801F095F92369032B04D940F6B4
S315080012808231644801F08DF96369032B04D940F66D
S315080012908531604801F085F9E369032B04D940F6E6
S315080012A088315C4801F07DF98020FFF769FE032844
S315080012B000F08A804FF48012574B584D5A6645F60F
S315080012C00E034FF0A062C5F88030554B9A624FF472
S315080012D0803203F580539A62AB6DDA03FCD4AE6DA7
S315080012E016F08046FBD1D4E900231B0543EA0263C6
S315080012F0E27B4C481343227B4B4F43EA0243627B13
S3150800130043EA0233A27B43EA82132B61AA69D4E932
S3150800131004131B0643EA816302F000421343A27ECC
S315080013204FF440611343227E43EA0243627E43EA56
S315080013300223AB614FF4006201F05EF92B6AE17E8D
S31508001340E26923F00F0343EA8103002A3DD12B62A9
S3150800135094F8243094F82010AA6ADB0043EA411373
S315080013603A40134394F82120304943EA021343F4E0
S3150800137080332A4AAB62936D31EA0303FBD14FF0FF
S315080013808071274881621369A56823F4700343EACC
S31508001390055313614FF00043836194F822300BB96B
S315080013A0234B996294F823303BB94FF48032204B93
S315080013B09A621A4A936D5B00FCD494F825301BB1E7
S315080013C0164B1C4AC3F88020F8BD134343F00803A4
S315080013D0022A2B6208D12E614FF408524FF47F413E
S315080013E01548AE6101F008F90C4994F822308A6A6A
S315080013F094F820001B063A4043EA4013134394F836
S31508001400242043EAC20394F8232043EA02438B626A
S31508001410D3E700BF24280008009000500040005A77
S315080014200050005A3840005AC7FFFEFE030001006C
S315080014300060005AF1A7FFFF3440005A014B93F9A8
S315080014400000704717100020436810B5072B0446A4
S3150800145004D940F6B3512A4801F0A3F8A368032B30
S3150800146004D940F6B551264801F09BF82378032B9A
S3150800147004D940F6B751224801F093F894F901309F
S31508001480002B04DA40F6B9511D4801F08AF84FF4EA
S3150800149000011C4A637851664FF4D151022002F5C7
S315080014A0B832516218494F2B48604FF0010028BFE7
S315080014B04F2301F5805148601169C903FCD421788E
S315080014C043EA01235361D4E901131B0143EA0123CB
S315080014D0617B0B43217B43EA41039360E37BA17B5A
S315080014E01B0143EA4113617C0B43217C43EA410318
S315080014F05360A37C13B16FF4D153536210BD00BF80
S31508001500242800080090005000100250014B188053
S31508001510704700BF12100020014B1880704700BFAB
S3150800152010100020B0F5207F10B55FD00ED8B0F5AA
S31508001530007F49D003D800B3B0F5C07F1DD040F274
S315080015401231BDE81040314801F02BB8B0F5607F84
S31508001550F5D14C1E012C06D9042904D04FF43D714F
S315080015602A4801F01EF82A4AD2F8803023F03003C0
S3150800157043EA0413C2F8803010BD4C1E012C0AD968
S31508001580102903D8234BCB40DB0704D440F2C721EC
S315080015901E4801F006F801F03EF801F04AF81C4A28
S315080015A0136F23F4704343EA04331367FEF7C8FF47
S315080015B00446FFF7BDF8C0F10201204601F033F8F2
S315080015C0BDE8104000F028B84C1E1F2C04D940F284
S315080015D006310E4800F0E5FF0D4AD2F8903023F0A8
S315080015E0F85343EA0463C2F89030C5E74C1E012C51
S315080015F004D94FF44371054800F0D3FF044A136F2A
S3150800160023F4806343EA84231367B5E72428000894
S31508001610008000501001010008B54FF4C070FFF7B4
S3150800162081FBBDE808400449884294BF0121022194
S315080016304FF42070FFF776BF80F0FA02024A536B28
S315080016400342FCD1704700BF00400950034A0179A4
S31508001650D36E23F030030B43D36670470040005027
S31508001660F8B50446244BD3F88420D006FBD4D3F827
S315080016708430C3F381139C423CD0FEF747FF012C0C
S3150800168005460BD11D4B984204D940F281711C487E
S3150800169000F087FF0121284600F0C5FF00F0ECFFA7
S315080016A04FF00072174B07465A66204600F0F4FFC3
S315080016B04FF48063104E621E93403367736E9A012F
S315080016C003D4D6F884309B060AD5384600F0D8FFEE
S315080016D0022C0FD12846BDE8F840002100F0A3BF30
S315080016E0D6F884309906E9D540F28F71044800F09F
S315080016F058FFE3E7F8BD00BF00400050005A6202F9
S31508001700532800080060005010B50C4608B9FEF7CB
S31508001710FDFE074B21461B783BB1064B984204D881
S315080017200120BDE81040FFF79BBF0220F9E700BF84
S3150800173074100020005A62024FF0004238B5244B5C
S31508001740244C5A664AF6CD33656C014605F0010508
S31508001750236428BB0120FFF771FF6368DB0715D5F3
S315080017601D4B586008461D4B226BD2070CD4984275
S3150800177008D1072415B1174B194A1A6400F08DFFD2
S31508001780204638BD0130EFE79842F2D00024F1E751
S315080017900132236B13F0080305D08A42F8D1E8E733
S315080017A000220E49F5E78A42E3D020210A4A9162CF
S315080017B00121A2F5805251600649084A886A8006C6
S315080017C003D49342D5D00133F8E79342DDE700BF4F
S315080017D000900050004009500060095040420F0038
S315080017E03254FFFF4FF0004238B5164B01465A6691
S315080017F04AF6CD33144C154A656C236443780B209E
S315080018005B0043F00103D363FFF718FF63688A7828
S3150800181023F4F87343EA02136360CA784B7943EA00
S315080018200223A3600A798B7943EA022323610878A5
S31508001830FFF782FFEB0744BF054B236400F02DFF3B
S31508001840012038BD0090005000400950004000506B
S315080018503254FFFF032838B504460D4605D8094B10
S3150800186033F81030CB40DB0704D440F22D4106484C
S3150800187000F097FE302301225C43044BAA401A511C
S3150800188038BD00BFB2280008B827000840D003506A
S31508001890032838B504460D4605D8094B33F81030E9
S315080018A0CB40DB0704D440F2FE31064800F079FE4F
S315080018B0302301225C43044BAA401A5138BD00BFAD
S315080018C0B2280008B827000840E0035003282DE98D
S315080018D0F04104460D461746984605D81D4B33F881
S315080018E01030CB40DB0704D44FF4B0711A4800F02F
S315080018F058FE37B129462046B8F1000F20D0FFF729
S31508001900A9FF0F21072D04EB440688BFA5F108039C
S315080019104FEA0616114895BFAB009B0004360C36F5
S3150800192007FA03F29940304400F0B8FE7FB9294619
S315080019302046B8F1000F06D0BDE8F041FFF78ABF90
S31508001940FFF7A6FFDDE7BDE8F041FFF7A1BFBDE859
S31508001950F08100BFB22800088228000830C0035072
S31508001960034B5A68D20702D5DA69002AF9D17047BB
S3150800197000800A50054B9A689107FCD45A6892076A
S31508001980F9D4DA69002AF6D1704700BF00800A50F8
S3150800199008B5FFF7E5FF0222014B1A6108BD00BF33
S315080019A000800A5008B5FFF7E5FF0122024B03F550
S315080019B080514A601A6108BD00800A5008B5044B78
S315080019C05968012903D1FFF7E3FF024B596008BDA7
S315080019D000800A5000A00A5010B5064CFFF7CAFF4F
S315080019E06368012B03D1FFF7E9FFFFF7C3FF03780D
S315080019F0E36010BD00800A50A8B94A680B78B2B9EE
S31508001A004A7843EA42038A6812B1127843EA821393
S31508001A108A7843EA8203CA6812B1127843EA4223F3
S31508001A20054A936470477F21044800F0BABD1278CE
S31508001A3043EAC203E4E700BF00800A50BA28000858
S31508001A4010B9044B596470474FF48971024800F085
S31508001A50A8BD00BF00900A50BA28000810B9044B68
S31508001A60596470474FF4A771024800F09ABD00BF49
S31508001A7000A00A50BA28000810B9044B1964704728
S31508001A804FF4C571024800F08CBD00BF00A00A5093
S31508001A90BA28000808B510B9044B186C08BD0448E4
S31508001AA040F2C51100F07DFD0020F7E700800A50DE
S31508001AB0BA28000808B520B949B101290AD000207A
S31508001AC008BD4FF41D71054800F06BFDF7E7044BA0
S31508001AD0D86CF5E7024B186DF2E700BFBA28000884
S31508001AE000800A5018B939B1012908D0704740F268
S31508001AF01231044800F055BD034BDA647047024BB7
S31508001B001A657047BA28000800800A5007B5084BBE
S31508001B1018689A889B7900906846ADF804208DF875
S31508001B200630FFF75FFE002003B05DF804FB00BF38
S31508001B30F928000813B50024064A6846536F43F08F
S31508001B400103536700948DF80440FFF77FFD204694
S31508001B5002B010BD0040005030B58BB06C46174D32
S31508001B600FCD0FC40FCD0FC495E8030084E803001A
S31508001B70134BD3F84C2112031CD5A3F5FE431C883E
S31508001B804FF6FF739C4208BF8C248DF81940FFF767
S31508001B9055FC204480F308008DF818000948FEF724
S31508001BA0EBFC6846FFF72EFB3220FFF7B5FC00205A
S31508001BB00BB030BDD3F85041E4B2E6E7002900087F
S31508001BC00080E00FC017530230B5094D87B001AC4D
S31508001BD00FCD0FC42B6801A823603F238DF805306D
S31508001BE0FFF732FC3220FFF791FC002007B030BD2A
S31508001BF0282900086FF00403502110B50A480B4C39
S31508001C0013F0800F03F1010207D123444C2A83F80D
S31508001C1000131346F4D1002010BD03F00F03043B54
S31508001C20034419761346EBE700ED00E000E100E017
S31508001C3030B50E4C416123688BB9206083600DE096
S31508001C40891A9A681D4641616AB113465A698A42D9
S31508001C50F6D935B1A860521A83605A6130BD00259D
S31508001C60F4E72060F7E798608260F7E764100020E1
S31508001C7038B500F031FA0025084B094C1A68236874
S31508001C80C31A2AB123B15169994203D3C91A5161BA
S31508001C90206038BD55615B1A9268F2E7641000202F
S31508001CA06010002038B5134D2B685B6993B1124A52
S31508001CB0022014681C4400F004FD204600F014FAC3
S31508001CC000230E492A680B70D088800709D501239E
S31508001CD00B7038BD022000F0F4FC022000F052FA26
S31508001CE0EEE79268002AF4D050690344012BEBD939
S31508001CF0EFE700BF64100020601000207610002077
S31508001D0070B516469DF81420C0E903360271049A88
S31508001D10BDF818300260002204460D468260C38072
S31508001D20EEB900F0D9F92844A0619DB12E4600F01D
S31508001D30A3FC0546FFF79CFF31462046FFF778FFD0
S31508001D40104B1B68A34201D1FFF7ACFF284600F0F1
S31508001D5097FC02E0E36865617BB9002070BD00F07E
S31508001D60BBF93044A061002DE0D1E3686561002B22
S31508001D70DDD0204621689847D9E72046216898474C
S31508001D80EBE700BF6410002000220C490B687BB10A
S31508001D9083420AD183687AB1936083681BB15A6912
S31508001DA041690A445A61002070471A469B68EEE763
S31508001DB00028EFD0022070470B60EEE76410002081
S31508001DC070B500F060FC144E05463478FCB9134B28
S31508001DD01C60134B1C60134B1C8000F04BF9012050
S31508001DE000F06FFC00F090FC0F4B0246186020B91B
S31508001DF0284600F04EFC232070BD234640F2E7310A
S31508001E000A4800F0C7F90A4B1860012333702846C0
S31508001E1000F03FFC0020EFE7771000206410002058
S31508001E2060100020701000206810002018FCFFFFCA
S31508001E305C10002038B50C460546A8B1A1B10023B0
S31508001E400B7000F020FC0121084B1B6833B900F029
S31508001E5020FC002038BD9D4204D121702278002A3A
S31508001E60F9D0F4E79B68F1E72220F3E76410002035
S31508001E70F8B50C4B05461B680E4683420FD3002463
S31508001E8040F2E7302146084B4FF47A721F68002368
S31508001E90E5FB070100F07EF930602046F8BD2120F9
S31508001EA0FCE700BF5C10002068100020F0B51F4654
S31508001EB0002387B00C46164605468DF8133050B3F6
S31508001EC00DF11301FFF7B6FF9DF813302BBB204623
S31508001ED005A9FFF7CDFFE0B9114BE8831B68284633
S31508001EE05C434FF47A73B4FBF3F203FB1244191BF9
S31508001EF089B2994208BF0021BDF83430A983059AF2
S31508001F0002939DF830301146CDE900733346FFF74A
S31508001F10F7FE07B0F0BD2220FBE70220F9E700BF75
S31508001F2068100020C2072DE9F04704460BD54D4A34
S31508001F30138801339BB21380FFF79AFE4A4B1B683E
S31508001F400BB1FFF7AFFEA30740F18A8000F09BFBB9
S31508001F504FF0000905464E46FFF78AFEC846424F2F
S31508001F603C680CB163698BB10022404B012E1A7094
S31508001F7003D119F0020F18BF1E70002C6CD0FFF7A2
S31508001F8091FE2846BDE8F04700F083BB23465A6910
S31508001F903AB91A792179914288BF1C469B68002B69
S31508001FA0F5D1284600F075FB2569DDB100F094F8F7
S31508001FB0A269A0EB02094FEAE9734D4578EB0303E2
S31508001FC011DA23691344A361E368B4F8069001366D
S31508001FD013B120462168984700F055FB0546FFF7E0
S31508001FE047FEBDE7A94600F04EFB82462046FFF7AE
S31508001FF0CBFE504600F04DFB2369002BE4D0B5EB31
S3150800200009054FEAE97363EB4303002B04DA40F250
S315080020102B51174800F0C5FAA38B33B1E28B134452
S315080020209BB2B3F57A7F0FD2E38300F02CFB81468F
S3150800203029462046FFF7FCFDA36922694846134452
S31508002040A36100F026FBBFE7A3F57A73E383A369D0
S31508002050013D013BA361E8E7022000F07DF890E727
S31508002060BDE8F0877010002064100020751000206D
S315080020703C29000810B50121002486B03E20ADF8A1
S315080020800810CDE903448DF804408DF80A400594FC
S31508002090FEF720FE01A8FFF79FFC204602A98DF84F
S315080020A00840FFF7A9FC20460F21FFF7D7FC0F21B0
S315080020B02046FFF7E1FCFFF775FCFFF751FC4022CD
S315080020C0034B9C61034BC3F888219A6006B010BD88
S315080020D000800A5000E100E008B5FFF741FC014B1B
S315080020E0986908BD00800A50F8B5044600F0C4FA9D
S315080020F00746FFF735FC164B9D6900F0DEFA0646E3
S315080021000020FFF7C7FC830704D4731B032B01D8F1
S31508002110AE420FD10021631B022B98BFEC1C084668
S31508002120B4F1FF3F2CBF2246621EFFF7DBFC0220FC
S3150800213000F0C7FA384600F0A3FA064A137833B116
S3150800214003498B6C43F001038B6400231370F8BDBD
S3150800215000800A5018100020830700F0010109D5F5
S315080021600122064B41F002011A70054A936C23F0CE
S31508002170010393640020FFF771BC00BF181000200C
S3150800218000800A50830742BF0222014B1A64704737
S3150800219000900A5053B94AB9002908BF00281CBF45
S315080021A04FF0FF314FF0FF3000F082B9ADF1080C67
S315080021B06DE904CE00F006F8DDF804E0DDE9022357
S315080021C004B070472DE9F04F099D0C46002B4DD100
S315080021D08A420F4684469646B2FA82F360D94BB1D4
S315080021E002FA03FEC3F120029F4000FA03FC20FA1C
S315080021F002F217434FEA1E461FFA8EF44FEA1C42B4
S31508002200B7FBF6F106FB117701FB04F042EA074239
S31508002210904208D91EEB020201F1FF3702D2904222
S3150800222000F231813946121A1FFA8CFCB2FBF6F01D
S3150800223006FB102200FB04F44CEA024C644508D95C
S315080022401EEB0C0C00F1FF3202D2644500F21E812F
S31508002250104640EA0140ACEB040C002125B12CFAEB
S3150800226003F30022C5E90032BDE8F08F8B4205D999
S315080022700DB1C5E9000100210846F5E7B3FA83F177
S3150800228000294DD1A342C0F0F380904280F0F0803F
S31508002290064623460846002DE6D0C5E90063E3E76F
S315080022A0002B40F0A3808A1A4FEA1E471FFA8EF6C3
S315080022B00121B2FBF7F407FB14204FEA1C4242EA5D
S315080022C0004206FB04F090420FD91EEB020204F10D
S315080022D0FF382CBF4FF001094FF00009904203D98F
S315080022E0B9F1000F00F0CC804446121A1FFA8CFC94
S315080022F0B2FBF7F007FB102200FB06F64CEA024C8D
S31508002300664508D91EEB0C0C00F1FF3202D2664571
S3150800231000F2B3801046ACEB060C40EA04409DE799
S31508002320C1F120068B4004FA01FE22FA06F720FACC
S3150800233006FCF4408A401F434EEA0C0300FA01FEED
S315080023404FEA17484FEA13491FFA87FCB4FBF8F01F
S3150800235008FB104449EA044400FB0CF9A1450ED9D0
S315080023603C1900F1FF3A2CBF4FF0010B4FF0000B60
S31508002370A14503D9BBF1000F00F08B805046A4EBB2
S3150800238009041FFA83F9B4FBF8F308FB134403FBAB
S315080023900CFC49EA0444A44506D93C1903F1FF3864
S315080023A001D2A4457BD8434643EA0040A4EB0C047B
S315080023B0A0FB02984445CC46434602D306D1CE45F7
S315080023C004D20138B9EB020C68EB0703002D6CD078
S315080023D0BEEB0C0264EB030422FA01F304FA06F6D8
S315080023E0CC4000211E43C5E900643DE702FA03FE1E
S315080023F0C3F1200104FA03F200FA03FCCC404FEAC9
S315080024001E4720FA01F11FFA8EF6B4FBF7F00A43CD
S3150800241007FB1044110C41EA044100FB06F48C4208
S315080024200ED91EEB010100F1FF382CBF4FF0010950
S315080024304FF000098C4202D9B9F1000F2CD0404662
S31508002440091B92B2B1FBF7F407FB141142EA0142E9
S3150800245004FB06F1914207D91EEB020204F1FF388C
S3150800246001D291421ED84446521A44EA004120E756
S31508002470861A64EB030301200DE7F44402384AE7A1
S31508002480023C724431E702397244CCE6F44402381D
S31508002490DFE602383C4472E702387144D0E7023B73
S315080024A03C4481E7023C7244DEE72946DCE600BF8D
S315080024B0704700BF08B5064B044613B10021AFF3B9
S315080024C00080044B1B6803B19847204600F06AF861
S315080024D0000000006C10002070B50D4D00260D4C54
S315080024E0641BA410A64209D10B4D00260B4C00F024
S315080024F037F9641BA410A64205D170BD55F8043BF4
S3150800250001369847EEE755F8043B01369847F2E757
S315080025101C1000201C1000201C1000202010002079
S31508002520FDF7B2BEFDF7C2BE08B500F0F0F8FFF73A
S31508002530F7FF00F0F9F8FFF7F5FFFAE77047FDF740
S3150800254065BF08B500F00AF8BDE80840FFF738BCD3
S315080025507047704770477047704770470F2070473D
S3150800256008B501213A20FEF7B5FBBDE80840FFF79C
S31508002570E5BF01213A20FEF7ADBBFEE710B53AB13B
S31508002580002350F8234041F8234001339A42F8D1FA
S3150800259010BD002070474FF4004070474FF47A7022
S315080025A07047FEE7FEE7D0E90003184703690068AD
S315080025B0184710B5044601213A20FEF78BFBA3788D
S315080025C02078B3FA83F3042261785B09FFF77EF972
S315080025D0002010BD034659789B7800780BB9FEF7A2
S315080025E027B8FEF743B8034659789B7800780BB9A5
S315080025F0FEF73CB8FEF71CB870B5054614460E46FD
S3150800260000F03AF82B685C4034405C402C60BDE82A
S31508002610704000F035B808B5FDF7A4FFBDE80840DE
S315080026200021FEF72BBB0029CCBF01210021FEF7B4
S3150800263025BB02214FF42070FEF774BF08B50121AF
S315080026400220FFF70DF8FFF7E6FFBDE80840FFF7A1
S31508002650F0BF10B5FDF774FF0446FEF769F8C0F140
S3150800266002012046FFF7DFFF01210020FFF74CF8A3
S31508002670BDE81040FEF7D0BFEFF3108072B6704782
S3150800268000B962B67047EFF31180302383F31188DF
S31508002690704780F3118870477047704770B50546D4
S315080026A014460E46FFF7E8FF2B685C4034405C4052
S315080026B02C60BDE87040FFF7E3BF00210846FFF72E
S315080026C0F9B900F00101830748BF41F00201002073
S315080026D0FFF7B6B938B5FFF7D6FF04460020FFF76F
S315080026E0D9F9830700F0010548BF45F0020500F057
S315080026F003010020FFF7C0F92846FFF713FC204620
S31508002700BDE83840FFF7C5BF3E20FEF70BBB08B54E
S31508002710FDF730FEFFF713FFFFF713FFFFF718FF6C
S31508002720BDE80840FFF715BF08B5FFF713FFFFF729
S3150800273012FFFFF711FFBDE80840FFF70EBF02447E
S315080027400346934200D1704703F8011BF9E70000DE
S31508002750000000000000000000000000000000006B
S31508002760F8B500BFF8BC08BC9E467047F8B500BF70
S31508002770F8BC08BC9E467047000000000000000038
S31508002780000000000000000000000000000000003B
S31508002790000000000000000000000000000000002B
S315080027A014100020B3250008D5250008E7250008E1
S315080027B0A9060008E5060008433A5C557365727376
S315080027C05C557365725C53696D706C69636974797D
S315080027D053747564696F5C76355F776F726B737067
S315080027E06163655C696E69745F746573745C67655B
S315080027F0636B6F5F73646B5F342E342E305C706C62
S315080028006174666F726D5C656D6C69625C696E6336
S315080028102F656D5F6770696F2E680000FF017F0086
S31508002820FF033F002E2E2F6765636B6F5F73646B24
S315080028305F342E342E302F706C6174666F726D2F74
S31508002840656D6C69622F7372632F656D5F636D7555
S315080028502E63002E2E2F6765636B6F5F73646B5F45
S31508002860342E342E302F706C6174666F726D2F653E
S315080028706D6C69622F7372632F656D5F656D752E5A
S3150800288063002E2E2F6765636B6F5F73646B5F340F
S315080028902E342E302F706C6174666F726D2F656DD5
S315080028A06C69622F7372632F656D5F6770696F2E2F
S315080028B06300FF017F00FF033F002E2E2F6765632D
S315080028C06B6F5F73646B5F342E342E302F706C61C0
S315080028D074666F726D2F7065726970686572616C67
S315080028E02F7372632F7065726970686572616C5FA9
S315080028F07379737274632E6300010310010109036F
S315080029000B0000000C00000003000000000020205F
S3150800291000000000020000003C3C3C0000000000F3
S31508002920000000000000000001260000040000006E
S315080029300000000000010000000000002E2E2F6796
S3150800294065636B6F5F73646B5F342E342E302F7044
S315080029506C6174666F726D2F736572766963652F25
S31508002960736C65657074696D65722F7372632F7306
S315080029706C5F736C65657074696D65722E630000B3
S30D0800298080D8FF7F010000006A
S3110800298894290008001000200900000037
S31508002994C0EA2101C0EA210100800000C0175302E1
S315080029A4FFFFFFFF0208012801000000DD010008FF
S309080029B4B501000853
S70508000435B9
